:03000000021018D3
:0C101800787FE4F6D8FD75817502105F4A
:100026000008FFA8A8A8FF0800FE222222FF02005F
:10003600844437040414A744241F0242827F00002C
:100046000000BE2A2A2A2AEA2A2A2A2ABF020000F1
:1000560048444B494949497F4949494D496140000E
:10006600FFFFFFFFFDFFFDFDFDFBF3C70F1FFFFFBA
:10007600FFF7EFDFDFBFBFBF9FDFCFE3F0FCFFFF80
:10008600000000000000000000000000000000006A
:10009600000000000000000000000000000000005A
:1000A600404042CC0040A09F8181819FA02020003B
:1000B6000000007FA09040432C10282641C040003D
:1000C600001017D55557557D555755D517100000B3
:1000D6004040407F555555555555557F4060400029
:1000E600002010CC474444FC4444446446040000C9
:1000F60004040407040404FF0404040404060400BE
:1001060000000000FE222222222222FF020000001E
:10011600008040300F0202020242827F000000008F
:10012600000000FE82828282828282FF020000003C
:100136000000007F202020202020207F00000000DB
:1001460000FC848484FE141090101010FF10100020
:10015600003F1010103F0000002340807F00000089
:100166000080402098868080838C9020C08080000C
:1001760001008040201F004080403F000001000039
:10018600202424A4FEA322807000FF00102060001B
:1001960010080601FF0081804020170804030000B4
:1001A60000060909E610080808081830780000005B
:1001B600000000001F20404040404020100000008A
:1001C6001060028C0000FE9292929292FE00000055
:1001D60004047E01407E42427E427E42427E4000D0
:1001E6001060028C00FE929292929292FE000000A3
:1001F60004047E014448507F40407F5048444000FC
:100206000000FC242424FC252624FC2424240400A9
:1002160040308F80844C55252525554C80808000A4
:100226000000384444443800804020100804000090
:10023600000020100804020138444444380000003D
:1002460000000000000000FF2020203020000000F9
:10025600404040404040407F404040404060400079
:10026600020202020202FE0222428282020302000D
:10027600000000000000FF00000000010000000078
:1002860000FE0222DA0600FE92929292FF0200001F
:1002960000FF0810080700FF42240814226120000E
:1002A6000000000000C0C0000000000000000000C8
:1002B60000000000003030000000000000000000D8
:1002C600000000FE82828282828282FF020000009B
:1002D6000000007F202020202020207F000000003A
:1002E60080808080808080808080808080C0800048
:1002F60000000000000000000000000000000000F8
:1003060000000808080808080808080C080000008B
:1003160010101010101010101010101010181000DF
:100326000004848484848484848484C486040000D1
:1003360020202020202020202020202020302000C7
:1003460000FC040404FC040404FC040404FE04008D
:10035600007F20282423202020212222227F000023
:10036600000484848484FC84848484C48684000099
:1003760040404040784740404040407F4060400019
:100386002020202020222C38202020202030200051
:1003960000402018060300000001020C387000001F
:1003A60000F00804040408F0000F10202020100FAD
:1003B60000000808FC000000000000003F000000EC
:1003C6000018040404847800003824222120200028
:1003D60000188484848478000018202020201F00C0
:1003E600000000C0300CFC000004070404043F04B5
:1003F60000FC4444444484000018202020201F00B0
:1004060000F8848484841800001F202020201F0008
:1004160000040404C4340C000000003E0100000087
:100426000078848484847800001F202020201F0008
:1004360000F804040404F8000018212121211F00FB
:1004460000384444B8601804002018061D22221CF7
:1004560000FC040404048870003F01010101023C11
:1004660000FC8080808080FC003F00000000003F90
:100476000000000000000000000000003000000046
:1004860000808080808080800000000000000000E6
:1004960000000000000000000000333300000000F0
:10134D00014A23014C0F014950014B32C1000148A4
:10135D00FF0D23001F001F1E1F1E1F1F1E1F1E1F00
:03136D00013C0040
:051570001215B07F0A16
:10157500AD071FED600FE4FEEEC394FA50F20000D4
:0515850000000E80F3E0
:01158A00223E
:0812FE008F508E4F8D4E8C4D78
:10130600E4F554F553F552F551AF50AE4FAD4EAC32
:101316004DAB54AA53A952A851C3120DFC5027E451
:10132600FFFE0FBF00010EEF64324E70F5B296E578
:10133600542401F554E43553F553E43552F552E49B
:061346003551F55180C392
:01134C00227E
:05000600D2A1C2A022FE
:0B15A500C2A3D2A4A81E08E624B8FFD1
:0E15B000120006C2A1C2A08F80D2A2C2A22247
:10143B00E51E2404F8860308E6FA08E6F98F8275A0
:06144B008300120D7AFF80
:10145100120006C2A1D2A02000048F808004EFF404
:07146100F580D2A2C2A22215
:091649005307074307B80215B06E
:1015E700EF146008047009D2A3C2A422C2A3D2A434
:0115F70022D1
:10158B001215E7E4FEAF06121649E4FDE4FF121450
:09159B00510DBD40F70EBE08EC35
:0115A4002224
:1014E400D2A3D2A4E4FF12158B7F0112158B7F388F
:1014F4001215707F0F1215707F061215707F01127E
:0715040015B07F0A02157506
:0F0C6300E51E2404F8E6FDE51E2403F8E604FF71
:100C7200151EA81EA603151EA81EA605151EA81E33
:040C8200A607151E8E
:100C8600C28CA81E0808E6C394404003020D33D266
:100C9600A3C2A41215A9A81E0808E62440FF12152F
:100CA600B0E51E2403F8E6FFA81E0808E62FFFE4B9
:100CB60033FEC3EF9440EE64809480501CA81EE47B
:100CC600F6E51E2403F9A81EE6FFC3974003020DAE
:100CD6005812143BA81E0680E8A81EE4F6A81E08B3
:100CE60008C3744096FFA81EE6FEC39F5017E51E74
:100CF6002404F8860308E6FA08E6F98E8212144AF6
:100D0600A81E0680D81215A57F401215B0A81E0889
:100D160008C3744096A81EF6E51E2403F9A81EE62D
:100D2600FFC397502D12143BA81E0680EB1215A583
:100D3600A81E0808E6FF1215B0A81EE4F6E51E2454
:100D460003F9A81EE6FFC397500812143BA81E0617
:040D560080EBD28CD0
:070D5A00E51E2407F51E222F
:1010A40075F00A84E5F075F010A424A6F9740335EC
:0610B400F0FA7BFF7F0053
:1010BA00151E151E151EA81EA60308A60208A601BF
:1010CA00151EA81EA605151EA81EA607A81E0808F6
:1010DA00860308E6FA08E6F9151E151E151EA81E4F
:1010EA00A60308A60208A6017B08E51E2404F8E662
:1010FA00FDE51E2403F8E6FF120C72A81E080886F6
:10110A000308E6FA08E62408F9E43A151E151E153E
:10111A001EA81EA60308F608A6017B08120C63E5A2
:06112A001E2405F51E2243
:0811B4007BFF7A0079867F02BF
:1011BC00151E151E151EA81EA60308A60208A601BC
:1011CC00151EA81EA605151EA81EA607A81E0808F3
:1011DC00860308E6FA08E6F9151E151E151EA81E4C
:1011EC00A60308A60208A6017B10E51E2404F8E657
:1011FC00FDE51E2403F8E6FF120C72A81E080886F3
:10120C000308E6FA08E62410F9E43A151E151E1533
:10121C001EA81EA60308F608A6017B10120C63E597
:06122C001E2405F51E2240
:0C163C00154D154D154D154D154D154D56
:01164800227F
:10139200E4F547FF752102209707AE210521EE7083
:1013A200F612163C12163C12163C30971275450185
:1013B20075210230970CAE210521EE600580F4E420
:1013C200F545E54725E0F547E54542470FBF08C427
:0213D200AF4723
:0113D40022F6
:100F8A00C2977F12121575D29712163C12163C128E
:100F9A00163C12163CD297209751752102209707CA
:100FAA00AF210521EF70F6752102309707AF2105B1
:100FBA0021EF70F61213928F421213928F4412137A
:100FCA00928F431213928F461213928F3FD297E554
:100FDA0042254425432546F53AB53F0F85423785D4
:100FEA00443985433885463B853F22E53775F00A03
:100FFA0084F53DE53775F00A8485F03EE53875F0ED
:0E100A000A84F540E53875F00A8485F041222D
:1015D400E4FEEF1392A5D2A6C2A6EFC313FF0EBE7C
:0215E40008F00D
:0115E60022E2
:10146800E4FFEEC313FEA2A5E433FDC433333354C3
:10147800804206D2A6C2A60FBF08E7EEC4540F7575
:09148800F00AA4FFEE540F2FFF3F
:011491002238
:1015F800C2A7C2A6D2A71215D4121468D2A6C2A72F
:0116080022BF
:10160900C2A6D2A71215D4AF051215D4D2A6C2A765
:0116190022AE
:1013D500E4FD7F8E121609E4FCEC25E02480FF7401
:1013E500302CF8E6FE75F00A84C454F0FDEE75F075
:1013F5000A84E5F04DFD1216090CBC07DC7D807FE3
:041405008E02160934
:1015BE00E4FCEC25E02481FF1215F874302CF8A61B
:0515CE00070CBC07ED55
:0115D30022F5
:09140900E53624D0FFE43407FEAF
:10141200AB07AA06EB5403700AFC7D64120DA7ED1C
:101422004C700FAE02AF037C017D90120DA7ED4C04
:0914320070047F0180027F00229A
:100EF8007557007558059007D0E53624D0FFE434BF
:100F080007FEC3E5829FE5839E502EAF82AE831213
:100F18001412EF7E0160047F6E80027F6D8E558F04
:100F280056E5582556FFE5573555FE7C007D0712D6
:100F38000DA78C578D58A380C0E4F555F556F58359
:100F4800758201C3E5829534E58394005013AF821E
:100F580074232FF8E62556F556E43555F555A38044
:100F6800E2E5332556F556E43555F555E558255649
:100F7800FFE5573555FE7C007D07120DA7ED04F5FA
:010F88003533
:010F89002245
:100AC500A907E548B40B004003020C62900AD8F868
:100AD500282873020C4A020C30020C16020BE7029E
:100AE5000BB0020C62020B79020B59020B39020B97
:100AF50019020AF9B90109E54CC3954A5002054C9A
:100B0500E9F46003020C62E54CD394005003020C37
:100B150062154C22B90109E54AC394325002054ACF
:100B2500E9F46003020C62E54AD3954C5003020CCC
:100B350062154A22B90109E54BC395495002054B97
:100B4500E9F46003020C62E54BD394145003020CE4
:100B550062154B22B90109E549C3945A500205496A
:100B6500E9F46003020C62E549D3954B5003020C8E
:100B750062154922B90109E536C394635002053669
:100B8500B9FF09E536D3940040021536121409EF72
:100B950060047F1D80027F1C8F2574232534F8E6B1
:100BA500FFE533D39F40678F338063B90109E5348F
:100BB500C3940C50020534B9FF09E534D3940140C0
:100BC500021534121409EF60047F1D80027F1C8F0B
:100BD5002574232534F8E6FFE533D39F40028F3390
:100BE500802C121409EF60047F1D80027F1C8F2565
:100BF500B9010F74232534F8E6FFE533C39F50028E
:100C05000533B9FF09E533D3940140021533020ECC
:100C1500F8B90109E532C3941750020532E9F470B9
:100C25003CE532D394004035153222B90109E5314E
:100C3500C3943B50020531E9F47022E531D39400A9
:100C4500401B153122B90109E530C3943B5002051B
:0E0C550030B9FF09E530D3940040021530227B
:10161A0075A88375B801D288758C3C758AB0D28C4E
:01162A00229D
:100E39001214E412161A1215537BFF7A0379C67D30
:100E4900007F001210BA7BFF7A0379A67D087F0024
:100E59001210BA7BFF7A0479867D207F001210BABE
:100E69007BFF7A0479867D387F001210BA7BFF7A7E
:100E79000079467D507F001211BC7BFF7A007926EC
:100E89007D607F001211BC7BFF7A0179C67D007FEE
:100E9900041211BC7BFF7A0279067D107F041211BE
:100EA900BC7BFF7A0279A67D207F041211BC7BFFEF
:100EB9007A0179A67D407F041211BC7BFF7A017902
:100EC900E67D007F061211BC7BFF7A0279067D1050
:100ED9007F061211BC7BFF7A0279A67D207F06125C
:0F0EE90011BC7BFF7A0279267D407F060211BC87
:10162B007F057E047D747CD6DCFEDDFADEF6DFF210
:01163B00228C
:1004A600120E39120F8AE548F46003020557121539
:1004B600BE7D401211B47D501211B47BFF7A0079D3
:1004C600867D607F021211BC7BFF7A0079867D7083
:1004D6007F021211BCE537D395495015E537C39510
:1004E6004B400EE538D3954A5007E538C3954C5036
:1004F6000FC2957F327E007D007C001212FE8004C2
:10050600D295D296E538D3954A4004C2908002D25D
:1005160090E538C3954C5004C2918002D291E537DC
:10052600D395494004C2928002D292E537C3954BD7
:100536005004C293800DE538D3954A4004C2938097
:1005460002D29320930312162BD29312162B020675
:1005560048E548640A6006E548640970087BFF7A46
:100566000179C68012E54864086006E548640770AC
:10057600177BFF7A0179E67D407F021211BC7BFF73
:100586007A0279067D5080227BFF7A0079A67D402B
:100596007F021211BC7BFF7A0079C67D507F021262
:1005A60011BC7BFF7A0079867D707F021211BCE553
:1005B60048640A6006E548640870087BFF7A027999
:1005C600668012E54864096006E548640770177B93
:1005D600FF7A0279467D607F021211BC7BFF7A02A8
:1005E60079867D708057E548B4060A7BFF7A0079E4
:1005F600E67D608048E548B4040A7BFF7A01790607
:100606007D608039E548B4030A7BFF7A0179267D4F
:1006160060802AE548B4020A7BFF7A0179467D604C
:10062600801BE548B4010A7BFF7A0179667D60800C
:100636000CE548700D7BFF7A0179867D607F02129A
:1006460011BCE53675F00A8475F010A424A6F97479
:100656000335F0FA7BFF7D107F001210BAE5367D78
:10066600181210A4E53475F00A8475F010A424A6B7
:10067600F9740335F0FA7BFF7D287F001210BAE586
:10068600347D301210A4E53375F00A8475F010A499
:1006960024A6F9740335F0FA7BFF7D407F00121023
:1006A600BAE53375F00A84E5F075F010A424A6F9CE
:1006B600740335F0FA7BFF7D487F001210BAE535EA
:1006C60075F00A84E5F075F020A424A6F9740235C5
:1006D600F0FA7BFF7D707F001211BCE53275F00ADF
:1006E6008475F010A424A6F9740335F0FA7BFF7D17
:1006F600007F021210BAE53275F00A84E5F075F053
:1007060010A424A6F9740335F0FA7BFF7D087F0256
:100716001210BA7BFF7A0479967D107F021210BA06
:10072600E53175F00A8475F010A424A6F974033532
:10073600F0FA7BFF7D187F021210BAE53175F00AD8
:1007460084E5F075F010A424A6F9740335F0FA7B5D
:10075600FF7D207F021210BA7BFF7A0479967D28EE
:100766007F021210BAE54075F010A424A6F97403AE
:1007760035F0FA7BFF7D307F041210BAE54175F043
:1007860010A424A6F9740335F0FA7BFF7D387F04A4
:100796001210BAE53D75F010A424A6F9740335F0DD
:1007A600FA7BFF7D307F061210BAE53E75F010A485
:1007B60024A6F9740335F0FA7BFF7D387F06121004
:1007C600BAE54C75F00A8475F010A424A6F97403F2
:1007D60035F0FA7BFF7D587F041210BAE54C75F0B0
:1007E6000A84E5F075F010A424A6F9740335F0FA2E
:1007F6007BFF7D607F041210BA7BFF7A0479867DC9
:10080600687F041210BAE54A75F00A8475F010A4E0
:1008160024A6F9740335F0FA7BFF7D707F0412106D
:10082600BAE54A75F00A84E5F075F010A424A6F935
:10083600740335F0FA7BFF7D787F041210BAE54B1E
:1008460075F00A8475F010A424A6F9740335F0FA3D
:100856007BFF7D587F061210BAE54B75F00A84E5DA
:10086600F075F010A424A6F9740335F0FA7BFF7D29
:10087600607F061210BA7BFF7A0479867D687F0650
:100886001210BAE54975F00A8475F010A424A6F989
:10089600740335F0FA7BFF7D707F061210BAE549C6
:1008A60075F00A84E5F075F010A424A6F9740335F2
:0E08B600F0FA7BFF7D787F061210BA0204A9CB
:03000300021232B4
:10123200C0E0C0F0C083C082C0D075D000C000C082
:1012420001C002C003C004C005C006C00720B41913
:10125200E548F46004E548700375480B1548E54815
:101262006405701F754804801A20B5047F0180054B
:1012720020B6077FFF120AC5800920B7061213D5D0
:101282007548FFD007D006D005D004D003D002D0D5
:0E12920001D000D0D0D082D083D0F0D0E03296
:03000B00021130AF
:10113000C0E0C0F0C083C082C0D075D000C000C085
:1011400001C002C003C004C005C006C007758C3CC6
:10115000758AB0053CE53C6402703E753C00E530A4
:1011600075F00A8475F010A424A6F9740335F0FA1A
:101170007BFF7D307F021210BAE53075F00A84E5FE
:10118000F075F010A424A6F9740335F0FA7BFF7D06
:10119000387F021210BA12000ED007D006D005D048
:1011A00004D003D002D001D000D0D0D082D083D0E0
:0411B000F0D0E03269
:10137000C101011D00011C00140800000000000054
:0E13800000000000000000000000000000005F
:081652008F993099FDC2992225
:10150B008B738A748975AB73AA74A975120D61609C
:10151B00130575E5757002057414F9120D61FF1250
:05152B00165280E222CF
:10155300438920759850758DF3858D8B758780D25F
:0D156300AFD2ACD28E43B8107F0102165AF1
:10000E00E51D600E051DE51DC394034005E4F51DB9
:05001E00D201021530C3
:1015300030011F7B007A007908AD1C1208C4AF1C73
:101540007E007D007B007A007908120E0DE4F51C08
:03155000C20122B3
:030023000214BC08
:1014BC00C0E0C0D075D000C000309813C298200195
:1014CC0010751D017408251CF8A699051C8002C214
:0814DC0099D000D0D0D0E0321D
:03138E00016700F4
:03165A008F672275
:0808C4008D5C8B598A5A895B97
:1008CC00E4F561120D6165676024E4F561AF6105C3
:1008DC006174682FF876AAAF61056174682FF87699
:1008EC0001AF61056174682FF87655020AB7AF5CE9
:1008FC007E0074FE2FF582EE34FFF583AB59AA5AB5
:10090C00A95B120D7A755D00F55E74FF2FF582EE12
:10091C0034FFF583120D7AFDE55EF55DEDF55EEFC6
:10092C0024FEFDEE34FFFC1212A08E5F8F60E5609A
:10093C00FCE55FFFECF55FEFF560655E7004E55D6F
:10094C00655F601AE4F561AF61056174682FF87634
:10095C00AAAF61056174682FF87602020AB7E4F554
:10096C0061AF61056174682FF8A667AB59AA5AA9E3
:10097C005B900001120D7AFFAE61056174682EF870
:10098C00A607900001120D7A64036003020AC4AB3F
:10099C0059AA5AA95B900002120D7A755D00F55E9A
:1009AC00900003120D7AFDE55EF55DEDF55E9000AD
:1009BC0004120D7A755F00F560900005120D7AFD3A
:1009CC00E560F55FEDF560E55E455D707CE56064C6
:1009DC0001455F7031AF61056174682FF87602E5EF
:1009EC003D75F00AA4AEF07C00253EF55EEC3EF5BC
:1009FC005DFFAE61056174682EF8A607AE610561F6
:100A0C0074682EF8A65EE5606402455F7074AF6191
:100A1C00056174682FF87604E53D75F00AA4AEF014
:100A2C007C00253EF55EEC3EF55DFFAE6105617424
:100A3C00682EF8A607AE61056174682EF8A65EE50F
:100A4C004075F00AA4AEF0801CE55E6401455D7053
:100A5C0031AF61056174682FF87602E54075F00AD4
:100A6C00A4AEF07C002541F55EEC3EF55DFFAE6179
:100A7C00056174682EF8A607AE61056174682EF8DE
:100A8C00A65E7B007A007968E561FD7C001212A0FD
:100A9C008E5D8F5EAE61056174682EF8A607E55D0C
:100AAC00FFAE61056174682EF8A6077B007A0079A9
:080ABC0068AD6105611214929E
:010AC400220F
:081492008B628A6389648D6599
:10149A00E4F566E566C395655017AB62AA63A9646D
:1014AA00856682758300120D7AFF121652056680D0
:0114BA00E24F
:0114BB00220E
:0412A0008C628D636C
:1012A40074FFF564F565E56345627005F562756381
:1012B40001E5631563AE62700215624E6037120D6C
:1012C400616265E4FDE56530E013E564C313F5642C
:1012D400E56513F5656365016364A0800BE564C38C
:1012E40013F564E56513F5650DBD08D9740129F995
:0912F400E43AFA80BCAE64AF6577
:0112FD0022CE
:101024000204A6E493A3F8E493A34003F68001F238
:1010340008DFF48029E493A3F85407240CC8C333CD
:10104400C4540F4420C8834004F456800146F6DF9C
:10105400E4800B010204081020408090134DE47ECC
:10106400019360BCA3FF543F30E509541FFEE49391
:10107400A360010ECF54C025E060A840B8E493A358
:10108400FAE493A3F8E493A3C8C582C8CAC583CA83
:10109400F0A3C8C582C8CAC583CADFE9DEE780BE3B
:01139100005B
:100D6100BB010689828A83E0225002E722BBFE0290
:090D7100E32289828A83E49322C3
:100D7A00BB010CE58229F582E5833AF583E022502E
:100D8A0006E92582F8E622BBFE06E92582F8E22278
:0D0D9A00E58229F582E5833AF583E4932292
:100DA700BC000BBE0029EF8DF084FFADF022E4CC30
:100DB700F875F008EF2FFFEE33FEEC33FCEE9DECF9
:100DC700984005FCEE9DFE0FD5F0E9E4CEFD22ED3F
:100DD700F8F5F0EE8420D21CFEADF075F008EF2F89
:100DE700FFED33FD4007985006D5F0F222C398FD7A
:050DF7000FD5F0EA2217
:100DFC00EB9FF5F0EA9E42F0E99D42F0E89C45F04D
:010E0C0022C3
:100E0D00EF4E6012EF60010EEDBB010B89828A83FC
:100E1D00F0A3DFFCDEFA2289F05007F709DFFCA909
:0C0E2D00F022BBFEFCF309DFFCA9F02260
:00000001FF
